:100000000C9496020C9416120C94EF110C949B0411
:100010000C94BE020C94BE020C94BE020C94BE0260
:100020000C94BE020C94BE020C94BE020C94BE0250
:100030000C94BE020C94BE020C94BE020C94BE0240
:100040000C94A5110C94BE020C94D80C0C94B20C18
:100050000C94BE020C94BE020C94BE020C94BE0220
:100060000C94BE020C94BE022B706978656C7350C0
:100070006F7765722000000000000064000F000030
:100080001E320F00000F00230F0F001919325368A2
:100090006F77696E6720494420000000000000006F
:1000A0000000000000000000000000000000000050
:1000B0000000000000000101010101010101010136
:1000C000010101020202020202020203030303030E
:1000D00003030404040404050505050606060607D3
:1000E0000707070808080909090A0A0A0B0B0B0C7D
:1000F0000C0D0D0D0E0E0F0F101011111212131307
:1001000014141515161617181819191A1B1B1C1D6F
:100110001D1E1F20202122232324252627272829AE
:100120002A2B2C2D2E2F30313232333436373839BA
:100130003A3B3C3D3E3F40424344454648494A4B9A
:100140004D4E4F515253555657595A5C5D5F606240
:1001500063656668696B6D6E7072737577787A7CAB
:100160007E7F81838587898A8C8E90929496989AD7
:100170009C9EA0A2A4A7A9ABADAFB1B4B6B8BABDBE
:10018000BFC1C4C6C8CBCDD0D2D5D7DADCDFE1E45D
:10019000E7E9ECEFF1F4F7F9FCFF2B6C65647350C1
:1001A0006F77657220002B697252656376506F77A6
:1001B0006572200052656365697665642049522046
:1001C000636F6D6D616E64200053656E74204952DB
:1001D00020636F6D6D616E6420005365656E2069EC
:1001E000647320636F756E743A200044756D706996
:1001F0006E672073746F72616765004944206F7683
:100200006572666C6F77207768656E2069746572B9
:100210006174696E67210053686F77207461736B36
:100220003A200019FF401940FFFE53656E642070AC
:10023000726573656E6365207461736B3A2000505C
:1002400061697220736C656570207461736B2074D2
:100250007269676765726564004D61726B696E678C
:10026000206964207365656E3A200019FFFF19400C
:1002700040FE436F6E6669726D6564206E6577201F
:1002800062616467652000322064326420FE436F3F
:100290006E6669726D65642070726576207365653F
:1002A0006E206261646765200053746F72616765D8
:1002B000206661696C65642C20666F726D61747470
:1002C000696E670053746F72616765206C6F61645B
:1002D0006564004F682D6E6F65732C20696E7661C2
:1002E0006C6964206F776E204944004D7920494441
:1002F00020005265616479005374617274696E679D
:10030000000000000FFFFF3CFFFF04000004FFFFA0
:1003100019FFFF04000004FFFFFF57616B65757054
:1003200020726561736F6E2000476F696E6720747D
:100330006F20736C65657000005EBCE2613FDD8319
:10034000C29C7E20A3FD1F41009D23BE46DB65F8B5
:100350008C11AF32CA57E974496E76616C696420BA
:100360006261646765206964005468697320636F23
:100370006E6669726D206973206E6F74206F75727E
:10038000730054696D656F75742077616974696E67
:100390006720666F7220636F6E6669726D61746943
:1003A0006F6E0044756D70696E672066696E697363
:1003B0006865640044756D702061636B20666F72C0
:1003C00020696E76616C69642070616765005468AD
:1003D00069732064756D702061636B206973206E92
:1003E0006F74206F7572730044756D70696E67204D
:1003F00070616765200054696D656F757420776161
:100400006974696E6720666F722064756D70206311
:100410006F6E6669726D6174696F6E001980401944
:100420008080194080198080FE546869732064754B
:100430006D70206973206E6F74206F757273004742
:100440006F742064756D7020776974686F7574209F
:1004500070726573656E636500476F742061636BCE
:1004600020776974686F75742070726573656E6348
:100470006500496E76616C6964206261646765201D
:10048000696400546869732061636B206973206E2E
:100490006F74206F75727300476F74206F776E20D2
:1004A0006964206F6E2070726573656E63652C20C1
:1004B00069676E6F72696E6700496E76616C696418
:1004C0002070726573656E6365204944000000000A
:1004D00000240027002A0000000000250028002B2F
:1004E0000000000000230026002900040404040486
:1004F00004040402020202020203030303030301D1
:1005000002040810204080010204081020010204A7
:10051000081020000000080002010000030407008A
:1005200000000000000000003D12881611241FBECC
:10053000CFEFD8E0DEBFCDBF11E0A0E0B1E0E2E355
:10054000FFE202C005900D92AE31B107D9F722E06B
:10055000AEE1B1E001C01D92AF3EB207E1F712E09B
:10056000C5E9D2E004C02197FE010E948117C43979
:10057000D107C9F70E94D7120C948C170C94000075
:100580001F93CF93DF93EC01162F0E94110F4AE0C7
:1005900050E00E948B0C0E94830C111103C084EB6D
:1005A00091E002C089EC91E00E94620C68816F7357
:1005B00070E080E090E040E10E94E30B8CE20E945A
:1005C000D80B888182958695869583709981292F8D
:1005D000220F220F622F682B96FB772770F980E09D
:1005E00090E04AE00E94E30B8CE20E94D80B8981E4
:1005F000881F8827881F9A81292F220F622F682B36
:1006000097FB772770F980E090E04AE00E94E30BC7
:100610008AE0DF91CF911F910C94D80B8F929F921B
:10062000AF92BF92CF92DF92EF92FF928091A90199
:10063000882309F4DCC00E94B20E4B015C0180915A
:100640002E0190912F01A0913001B09131017501DF
:100650006401C81AD90AEA0AFB0A47E0F694E7944B
:10066000D794C7944A95D1F782E00E94BE0D892B9A
:1006700019F09C2D906802C09C2D9F7780922E01CE
:1006800090922F01A0923001B09231018FE3890F37
:10069000803110F481E091C08091A901813021F472
:1006A00082EE890F8B3048F08091A901823099F455
:1006B0008DE7890F8330D0F10EC082E08093A901CD
:1006C00010922A0110922B0110922C0110922D01F0
:1006D000109229018CC08091A901833009F064C077
:1006E00085EF890F853008F05FC082E08093A90113
:1006F00080912A0190912B01A0912C01B0912D01A4
:10070000880F991FAA1FBB1F80932A0190932B016A
:10071000A0932C01B0932D0180912A0190912B017F
:10072000A0912C01B0912D01816059C080912901C7
:10073000803289F585E08093A901E091AB0181E0E9
:100740008E0F8093AB0180912A0190912B01A09193
:100750002C01B0912D0124E0E29FF0011124E15C15
:10076000FE4F80839183A283B3838091AB01877016
:100770008093AB019091AB018091AA01981337C08F
:100780008091AA018F5F8093AA018091AA0187704E
:100790008093AA012CC083E08093A9018091290154
:1007A0008F5F8093290123C08091A901833021F4B8
:1007B0008DEF890F833020F085E08093A90117C069
:1007C00082E08093A90180912A0190912B01A09150
:1007D0002C01B0912D01880F991FAA1FBB1F809378
:1007E0002A0190932B01A0932C01B0932D01FF902F
:1007F000EF90DF90CF90BF90AF909F908F90089533
:10080000E0912801F0E0E656FF4FE4916E2F70E092
:1008100086E00E94530EE0912601F0E0E656FF4F7D
:10082000E4916E2F70E085E00C94530EEF92FF92EE
:100830000F931F93CF930E94110F4AE050E00E9444
:100840008B0C0E94830C8BEE91E00E94620C8AE07C
:100850000E94D80B0E94110F4AE050E00E948B0CBE
:100860000E94830C8AED91E00E94620C60919F01CE
:100870007091A00180E090E04AE00E94E30B8AE0E2
:100880000E94D80B0FE511E0C0E07801F8018081EB
:10089000803118F480E30E94D80B0F5F1F4FF701DF
:1008A000608170E080E090E040E10E94E30B8C2FDB
:1008B0008770873011F48AE001C080E20E94D80B73
:1008C000CF5FC03411F78AE0CF911F910F91FF9055
:1008D000EF900C94D80B9C0187709927892B71F0AD
:1008E000C90188739927892B49F0C901807C9170CF
:1008F000892B21F081E02115324008F080E0089535
:10090000EFE5F1E080E090E060E46E0F419120E0DF
:1009100030E050E0DA01022E02C0B595A7950A94A6
:10092000E2F7A0FD01962F5F3F4F2830310591F788
:100930006E13ECCF08951F920F920FB60F921124F1
:100940008F93EF93FF93E8E6F0E080818E7F8083C2
:10095000FF91EF918F910F900FBE0F901F90189500
:10096000CF92DF92EF92FF92CF93DF9300D000D02F
:10097000CDB7DEB7962F9295990F990F907C8F7314
:10098000982B9983669566958A81807C682B70FB8D
:1009900066F940FB67F96A8346958B818078482B1E
:1009A00050FB47F94B83CE0101960E949A0C8C8331
:1009B00061E0CE0101960E94C002C980DA80EB801E
:1009C000FC801092A90161E083E00E94170E60E0B4
:1009D00083E00E94E70D81E08093B00089E080937E
:1009E000B10089E68093B30083E28093B4008091E4
:1009F000B00080628093B0008CE796E40197F1F735
:100A00008091B0008F7D8093B0008CE393E20197DA
:100A1000F1F781E224E634E044E35DE08150C9F07F
:100A20009091B00090629093B000F9013197F1F786
:100A30009091B0009F7D9093B000F7FE02C0FA0144
:100A400001C0F9013197F1F7CC0CDD1CEE1CFF1C45
:100A5000E5CF8091B00080628093B00084E694E09E
:100A60000197F1F78091B0008F7D8093B00060E036
:100A700083E00E94170E85E08093A9010F900F90EC
:100A80000F900F90DF91CF91FF90EF90DF90CF907C
:100A900008951F93CF93DF93F8943091AB01209189
:100AA000AA013217B9F0E091AA0124E0E29FF00117
:100AB0001124E15CFE4F408151816281738120915C
:100AC000AA012F5F2093AA012091AA0127702093E9
:100AD000AA0103C040E050E0BA017894FC014083D1
:100AE000518362837383452B462B472B51F0EC01D6
:100AF00060E00E94C0021B81CE010E949A0C91E02E
:100B0000181390E0892FDF91CF911F910895CF9313
:100B1000C82F0E94110F4AE050E00E948B0C0E94E7
:100B2000830C86EA91E00E94620C8C2F90E00E9478
:100B3000340C8AE00E94D80BCC2349F061E084E0B9
:100B40000E94170E61E084E00E94E70D0BC0E89858
:100B50008AE79DE0909301018093000160E084E0CA
:100B60000E94170E6AE070E080E090E00E94D70ECD
:100B7000CC23D1F085E08093A9010E94B20E60934E
:100B80002E0170932F0180933001909331018EE0FC
:100B900093E09093010180930001809169008C7F24
:100BA000816080936900E89ACF910895CF93C82F10
:100BB0000E94110F4AE050E00E948B0C0E94830CAF
:100BC0008AE991E00E94620C8C2F90E00E94340C24
:100BD0008AE00E94D80BCC23F9F061E086E00E9405
:100BE000170E61E085E00E94170E61E08DE00E9423
:100BF000170E60E08DE00E94E70D10922801109220
:100C0000270110922601109225011092A80110923E
:100C1000A701CF910C94000460E086E00E94170EBB
:100C200060E085E00E94170E60E08DE0CF910C94AB
:100C3000170ECF92DF92EF92FF920F931F93CF93F5
:100C40000091A5011091A6018091A7019091A801A2
:100C500060911F01C0911E0170912401A091270194
:100C6000509128014091250130912601009709F407
:100C700074C0FC0124912F3F99F460931F01C0932D
:100C80001E0170932401A0932701509328014093E3
:100C90002501309326011092A8011092A7016FC080
:100CA0002E3F19F4F8012491C801FC01319664919A
:100CB0003196C4910396222309F449C0042F132FBF
:100CC0009093A8018093A70160931F01C0931E0118
:100CD00020932401A09327015093280140932501DC
:100CE00030932601C22ED12CE12CF12C862F90E0DE
:100CF000A0E0B0E0BA2FA92F982F882720912701D4
:100D000030912801BC01CD01621B730B810991094F
:100D1000A70196010E940A17309323012093220114
:100D20008C2F90E0A0E0B0E0BA2FA92F982F882751
:100D3000BC01CD01601B710B81099109A7019601CE
:100D40000E940A17309321012093200118C070E0FF
:100D5000562FA0E03C2F40E089CF1092A8011092BE
:100D6000A70160931F01C0931E0170932401A093FB
:100D70002701509328014093250130932601CF91FC
:100D80001F910F91FF90EF90DF90CF900895809189
:100D90002401882391F18150809324018823E9F074
:100DA0002091270130912801809122019091230107
:100DB000820F931F90932801809327012091250192
:100DC000309126018091200190912101820F931F83
:100DD00090932601809325010EC080911F011092EF
:100DE00027018093280180911E0110922501809394
:100DF00026010E9419060C94000408950F931F9376
:100E0000CF93DF93CDB7DEB727970FB6F894DEBF49
:100E10000FBECDBF8C010E94110F4AE050E00E942E
:100E20008B0C0E94830C8EE890E00E94620CB8014B
:100E300080E090E04AE00E94E30B8AE00E94D80B39
:100E400083E026E331E0F801E770FF27AF01440FAC
:100E5000551FE40FF51FEA58FF4FD901AF014D5F51
:100E60005F4F94919D933196E417F507D1F72D5F6D
:100E70003F4F93E0169507959A95E1F7815019F742
:100E80000E94B20E00913201109133012091340181
:100E900030913501DC01CB01801B910BA20BB30B10
:100EA0008C329140A105B10558F3E9E0F5E0E491F9
:100EB00089E090E09A838983809136018F83F8944A
:100EC00085B18E2B8E8385B1E095E823ED838D81EE
:100ED0008C838F8187FF02C08E818C835E816D81C0
:100EE0004F813C812B8189819A81E7E3F1E055B9FB
:100EF000262F35B900C046FD252F65B900C055B96C
:100F0000362F25B900C045FD352F65B900C055B94C
:100F1000262F35B900C044FD252F65B900C055B94D
:100F2000362F25B900C043FD352F65B900C055B92E
:100F3000262F35B900C042FD252F65B900C055B92F
:100F4000362F25B900C041FD352F65B900C055B910
:100F5000262F35B900C040FD252F65B9019755B939
:100F6000362F25B9419147FD352F65B901F64F83DD
:100F70003C832B839A83898378940E94B20E60937A
:100F80003201709333018093340190933501279699
:100F90000FB6F894DEBF0FBECDBFDF91CF911F918A
:100FA0000F910895CF92DF92EF92FF92CF93DF934C
:100FB000EC016C01E12CF12CC11582E0D807A8F5F9
:100FC000FE0133E0F695E7953A95E1F7E15AFE4FD9
:100FD000808190E09E012770332702C09595879508
:100FE0002A95E2F780FF21C00E94110F4AE050E0ED
:100FF0000E948B0C0E94830C8EE892E00E94620C8F
:101000004AE0C701B6010E94E30B8AE00E94D80BB8
:1010100087E892E09093A8018093A7019093A6019E
:101020008093A5010E94190658C00E94110F4AE042
:1010300050E00E948B0C0E94830C82E792E00E9499
:10104000620C4AE0C701B6010E94E30B8AE00E94ED
:10105000D80B8BE692E09093A8018093A701909320
:10106000A6018093A5010E9419060E94110F4AE073
:1010700050E00E948B0C0E94830C89E592E00E9454
:10108000620C4AE0C701B6010E94E30B8AE00E94AD
:10109000D80BC11582E0D80700F5CE0187709927DB
:1010A00061E070E001C0660F8A95EAF7CE0123E0A7
:1010B000969587952A95E1F7FC01E15AFE4F20812C
:1010C000622B608303960E94FC160E94800490931A
:1010D000A00180939F010E941604CE010E94FE068B
:1010E00061E08DE00E94E70D88EB9BE0A0E0B0E0BE
:1010F00080934C0290934D02A0934E02B0934F0206
:1011000080914C0290914D02A0914E02B0914F02FD
:101110008093500290935102A0935202B0935302D5
:101120000E94110F609354027093550280935602EF
:10113000909357028EE799E0909365028093640242
:10114000DF91CF91FF90EF90DF90CF9008950E94B4
:10115000110F4AE050E00E948B0C0E94830C87E143
:1011600092E00E94620C6091AA027091AB028091A1
:10117000AC029091AD024AE050E00E948B0C8AE0F4
:101180000E94D80B8091A2029091A302A091A40288
:10119000B091A502892B8A2B8B2B21F481E08093BF
:1011A000AD0108958091A3019091A401019681154C
:1011B00022E09207C0F09093A4018093A3010E94C3
:1011C000110F4AE050E00E948B0C0E94830C8BEFC1
:1011D00091E00E94620C8AE00E94D80B1092A40158
:1011E0001092A30118C0FC0123E0F695E7952A951B
:1011F000E1F7E15AFE4F208130E0AC0147705527FE
:1012000002C0359527954A95E2F720FFCFCF9093FE
:10121000A4018093A3018091A3019091A4010C9457
:10122000FE06CF93C82F0E94110F4AE050E00E94A3
:101230008B0C0E94830C88E690E00E94620C8C2F3D
:1012400090E00E94340C8AE00E94D80BCC2389F0F5
:1012500061E087E00E94170E60E087E00E94E70DE2
:1012600061E08AE00E94170E60E08AE0CF910C9462
:10127000E70D60E08AE00E94170E60E087E0CF9102
:101280000C94170EEF92FF920F931F93CF93DF935F
:101290001F92CDB7DEB7DC019C918C918E7F8C9331
:1012A0008C918D7F8C93892F817090FF1FC05D96EC
:1012B0002D913C915E9721153105C1F07D019396EA
:1012C0000D90BC91A02D14960D911C91159715961B
:1012D000FC92EE9214978983F9010995D7019396B0
:1012E000ED91FC9194971583048389810F90DF9190
:1012F000CF911F910F91FF90EF9008950E94110FD1
:101300004AE050E00E948B0C0E94830C8FE392E035
:101310000E94620C8AE00E94D80B8BE492E00E944B
:10132000420981E08093AD0108950E94110F4AE0C7
:1013300050E00E948B0C0E94830C8AE292E00E9493
:10134000620C609185027091860280918702909173
:1013500088024AE050E00E948B0C8AE00E94D80B81
:101360008091850290918602A0918702B0918802B7
:101370000297A105B10560F483E292E09093A80181
:101380008093A7019093A6018093A5010E9419065E
:1013900080917D0290917E02A0917F02B0918002A7
:1013A000892B8A2B8B2B41F48BE492E00E9442091B
:1013B00081E08093AD0108956091A1017091A20137
:1013C000AB01409550958AE00E94B00481E0809383
:1013D000AC010E94E61620E931E040E050E00E94B6
:1013E0000A17DC01CB01805C994FAF4FBF4F809350
:1013F000710290937202A0937302B0937402809171
:10140000710290917202A0917302B0917402809364
:10141000750290937602A0937702B09378020E94AF
:10142000110F6093790270937A0280937B029093FC
:101430007C0208950F931F93CF93DF93FC01A3A128
:10144000B4A11097E9F1EC01158A168A178A108E5B
:10145000038CF48DE02D309779F1888181FD2CC0CB
:1014600014960D911C9115971596DC93CE931497B5
:101470008881826088830995988180FB90F99883A0
:1014800088818D7F8883EBA1FCA1158304830E9452
:10149000110F09811A812B813C810D831E832F83BB
:1014A0003887DC01CB01801B910BA20BB30B898722
:1014B0009A87AB87BC8704C0888181608883E7CF27
:1014C000DF91CF911F910F910895CF93DF93EC019E
:1014D0000E9442098BA19CA1009759F1EF8DF8A1C0
:1014E000A9A1BAA1309799F4109749F4DC0111969B
:1014F0001C921E9213961C921E9212971AC09096DE
:101500001C921E925F97FC01B183A08312C01097BA
:1015100041F412A211A2DC011396FC93EE931297F0
:1015200008C0B2A3A1A3A9A1BAA19096FC93EE937F
:101530005F97DF91CF9108952F923F924F925F92E4
:101540006F927F928F929F92AF92CF92DF92EF92A3
:10155000FF920F931F93CF93DF93CDB7DEB73C017C
:10156000180129010C891D89DC018C918E7F8C93D7
:101570008C918D7F8C93F3011186128613861486CD
:1015800015961D921D921D921C921897118212821F
:101590001382148210A2178E12A211A214A213A2F7
:1015A00055961D921D921D921C925897418352830D
:1015B0006383748381819281A381B48185839683BF
:1015C000A783B0870E94110FD30119966D937D9365
:1015D0008D939C931C97F301258636864786508A07
:1015E00051962D923D924D925C9254975A96FC9250
:1015F000EE9259975C969C928E925B975E961C93A6
:101600000E935D97C114D10449F193968D919C91ED
:1016100094978C159D0511F19496DC92CE92939738
:10162000F60180819181892B39F4718260829096D4
:101630001C921E925F970AC00280F381E02DD301B5
:101640009096FC93EE935F9772A261A2F30112A2AF
:1016500011A2D60113967C926E921297AA20A1F045
:10166000C301DF91CF911F910F91FF90EF90DF9019
:10167000CF90AF909F908F907F906F905F904F90A2
:101680003F902F900C941A0ADF91CF911F910F91E8
:10169000FF90EF90DF90CF90AF909F908F907F90D2
:1016A0006F905F904F903F902F900895CF92DF9270
:1016B000EF92FF920F931F93CF93DF936C017A0108
:1016C0008B01C0E0D0E0CE15DF0589F0D8016D9127
:1016D0008D01D601ED91FC910190F081E02DC601C4
:1016E0000995892B11F47E0102C02196ECCFC70128
:1016F000DF91CF911F910F91FF90EF90DF90CF90EE
:101700000895089580E090E008958EEA91E00E94A7
:101710003B0D21E0892B09F420E0822F08950E94DF
:101720008717EF92FF920F931F93CF93DF93EC01F4
:1017300081E0888F9B8D8C8D981305C0E889F9898D
:10174000808185FD24C0F62E0B8D10E00F5F1F4FAA
:101750000F731127E02E8C8DE8120CC00FB607FC1A
:10176000FACFE889F989808185FFF5CFCE010E9403
:101770007B0DF1CF8B8DFE01E80FF11DE35AFF4F7A
:10178000F0820B8FEA89FB898081806207C0EE8935
:10179000FF896083E889F98980818064808381E0A2
:1017A00090E0DF91CF911F910F91FF90EF900895FE
:1017B000E091AE01F091AF010190F081E02D682F32
:1017C0008EEA91E009948F929F92AF92BF920F930D
:1017D0001F93CF93DF93CDB7DEB7A1970FB6F894E1
:1017E000DEBF0FBECDBF19A2423008F44AE08E0121
:1017F0000F5D1F4F842E912CA12CB12CA5019401BB
:101800000E943C17E62FB901CA0101501109EA30C4
:1018100014F4E05D01C0E95CD801EC93232B242B88
:10182000252B61F70115110571F0F80101900020D9
:10183000E9F73197AF01401B510BB8018EEA91E0F7
:101840000E94560B02C080E090E0A1960FB6F8947B
:10185000DEBF0FBECDBFDF91CF911F910F91BF9023
:10186000AF909F908F900895CF92DF92EF92FF926A
:10187000CF93DF936C01990FEE08FF08F7FE17C0B6
:101880008DE20E94D80BEC0166277727CB016C19FB
:101890007D098E099F094AE00E94E30B8C0F9D1F72
:1018A000DF91CF91FF90EF90DF90CF9008954AE0C5
:1018B000C701B601DF91CF91FF90EF90DF90CF90FD
:1018C0000C94E30B0F931F93CF93DF938C01C0E035
:1018D000D0E0F801EC0FFD1F6491662371F0E091F8
:1018E000AE01F091AF010190F081E02D8EEA91E020
:1018F0000995892B11F02196ECCFCE01DF91CF9184
:101900001F910F91089543E050E06AE171E08EEA83
:1019100091E00C94560B4115510551F4E091AE0144
:10192000F091AF010190F081E02D8EEA91E00994F1
:101930000C94E30BDC0134E080E0315091F09D9198
:101940009827E92FEF70F0E0E85CFC4F2491929526
:101950009F70E92FF0E0E85BFC4FE4918E2F822727
:10196000ECCF08951F920F920FB60F9211242F9370
:101970003F934F935F936F937F938F939F93AF9317
:10198000BF93EF93FF938EEA91E00E947B0DFF914E
:10199000EF91BF91AF919F918F917F916F915F91E7
:1019A0004F913F912F910F900FBE0F901F90189560
:1019B0001F920F920FB60F9211242F938F939F9324
:1019C000EF93FF93E091BE01F091BF018081E09120
:1019D000C401F091C50182FD12C090818091C701C0
:1019E0008F5F8F732091C801821751F0E091C7017A
:1019F000F0E0E255FE4F958F8093C70101C08081D2
:101A0000FF91EF919F918F912F910F900FBE0F90AB
:101A10001F901895FC01538D448D252F30E0842FA5
:101A200090E0821B930B541710F0CF960895019706
:101A30000895FC01918D828D981761F0828DDF01F0
:101A4000A80FB11D5D968C91928D9F5F9F73928FB1
:101A500090E008958FEF9FEF0895FC01918D828DA6
:101A6000981731F0828DE80FF11D858D90E0089573
:101A70008FEF9FEF0895FC01918D228D892F90E0CB
:101A8000805C9F4F821B91098F739927089580E096
:101A900090E0892B29F00E94850B81110C940000A5
:101AA0000895833081F028F4813099F08230A1F0DC
:101AB00008958730A9F08830B9F08430D1F480914E
:101AC00080008F7D03C0809180008F77809380009D
:101AD000089584B58F7702C084B58F7D84BD089545
:101AE0008091B0008F7703C08091B0008F7D80938C
:101AF000B00008950895FC01848DDF01A80FB11D89
:101B0000A35ABF4F2C91848D90E001968F73992733
:101B1000848FA689B7892C93A089B1898C91806420
:101B20008C93938D848D981306C00288F389E02DE1
:101B300080818F7D80830895CF93DF93EC01888D22
:101B40008823C9F0EA89FB89808185FD05C0A889C1
:101B5000B9898C9186FD0FC00FB607FCF5CF808147
:101B600085FFF2CFA889B9898C9185FFEDCFCE0191
:101B70000E947B0DE7CFDF91CF910895CF93DF9344
:101B8000282F30E0F901ED5EFA4F8491F901E15020
:101B9000FB4FD491F901E551FB4FC491CC2391F057
:101BA00081110E94510DEC2FF0E0EE0FFF1FEF515D
:101BB000FB4FA591B491EC91ED2381E090E021F4ED
:101BC00080E002C080E090E0DF91CF9108951F9304
:101BD000CF93DF93282F30E0F901ED5EFA4F849127
:101BE000F901E150FB4FD491F901E551FB4FC4914C
:101BF000CC23C9F0162F81110E94510DEC2FF0E07B
:101C0000EE0FFF1FE952FB4FA591B4918FB7F894E7
:101C1000111105C09C91ED2FE095E92302C0EC91D4
:101C2000ED2BEC938FBFDF91CF911F910895CF9350
:101C3000DF9390E0FC01E150FB4F2491FC01E55162
:101C4000FB4F8491882361F190E0880F991FFC017C
:101C5000E353FB4FC591D491FC01E952FB4FA59191
:101C6000B491611109C09FB7F894888120958223AF
:101C70008883EC912E230BC0623061F49FB7F894F7
:101C80003881822F809583238883EC912E2B2C938F
:101C90009FBF06C08FB7F894E8812E2B28838FBF93
:101CA000DF91CF9108951F93CF93DF93182FEB010E
:101CB00061E00E94170E209711F460E004C0CF3F4E
:101CC000D10539F461E0812FDF91CF911F910C9400
:101CD000E70DE12FF0E0ED5EFA4FE491E330F9F02B
:101CE00048F4E130B9F0E230A1F584B5806284BDFA
:101CF000C8BD34C0E730E9F0E83019F1E43049F507
:101D000080918000806280938000D0938B00C0938C
:101D10008A0024C084B5806884BDC7BD1FC080917F
:101D20008000806880938000D0938900C0938800F1
:101D300015C08091B00080688093B000C093B3005C
:101D40000DC08091B00080628093B000C093B40059
:101D500005C0C038D1050CF0B5CFAFCFDF91CF9122
:101D60001F9108953FB7F8948091EB029091EC0297
:101D7000A091ED02B091EE0226B5A89B05C02F3FC1
:101D800019F00196A11DB11D3FBFBA2FA92F982FA1
:101D90008827820F911DA11DB11DBC01CD0143E01B
:101DA000660F771F881F991F4A95D1F708958F9264
:101DB0009F92AF92BF92CF92DF92EF92FF926B0110
:101DC0007C010E94B20E4B015C01C114D104E104FC
:101DD000F104F1F00E94B20EDC01CB0188199909DF
:101DE000AA09BB09883E9340A105B10570F321E023
:101DF000C21AD108E108F10888EE880E83E0981E27
:101E0000A11CB11CC114D104E104F10419F7DDCF08
:101E1000FF90EF90DF90CF90BF90AF909F908F900A
:101E200008952FB7F8946091E7027091E8028091CD
:101E3000E9029091EA022FBF0895CF93DF9300D07B
:101E400000D0CDB7DEB7CE0101960E9449058823A8
:101E500009F429C18981982F9F739A3009F05EC0D7
:101E600082958695869583702A81922F990F990F76
:101E7000492F482B26FB552750F9221F2227221FC6
:101E80003B81632F660F862F822B37FB992790F9B2
:101E90008095909591704817590759F00E94110F3D
:101EA0004AE050E00E948B0C0E94830C89EB94E086
:101EB000D8C08091A1019091A2014817590759F407
:101EC0000E94110F4AE050E00E948B0C0E94830C8C
:101ED00088E994E0C6C080E792E00E944209498107
:101EE00042954695469543705A81852F880F880FF5
:101EF000482B56FB552750F96091A1017091A20122
:101F000085E10E94B0048BE492E00E941A0A8AE5FF
:101F100090E19093650280936402C5C0953109F009
:101F200070C09A81592F551F5527551F4B81642F1B
:101F3000660F262F252B47FB332730F94091A1014F
:101F40005091A2012417350759F00E94110F4AE061
:101F500050E00E948B0C0E94830C83E894E081C0C7
:101F60008295869586958370292F220F220F822BCA
:101F700096FB992790F90E946B0481110BC00E9477
:101F8000110F4AE050E00E948B0C0E94830C82E704
:101F900094E067C08091AC0181110BC00E94110FC9
:101FA0004AE050E00E948B0C0E94830C89E594E08B
:101FB00058C080E792E00E944209498142954695C7
:101FC000469543705A81852F880F880F482B56FB02
:101FD000552750F96091A1017091A20182E10E9400
:101FE000B004898182958695869583709A81292F80
:101FF000220F220F822B96FB992790F90E94D2077D
:1020000052C0993109F04FC09091AC0191110BC0B1
:102010000E94110F4AE050E00E948B0C0E94830C3A
:102020008FE394E01EC082958695869583709A8191
:10203000492F440F440F242F282B96FB332730F9C8
:102040008091A1019091A2012817390781F00E9487
:10205000110F4AE050E00E948B0C0E94830C89E231
:1020600094E00E94620C8AE00E94D80B1CC08CE1B4
:1020700094E09093A8018093A7019093A601809388
:10208000A5010E94190680E792E00E944209109281
:10209000E5028AED90E190936502809364028BE4FF
:1020A00092E00E941A0A0F900F900F900F90DF910C
:1020B000CF9108950F931F93CF93DF9300D000D05B
:1020C000CDB7DEB78091600290916102A09162026B
:1020D000B09163024F97A105B10590F00E94110FD6
:1020E0004AE050E00E948B0C0E94830C82E893E04F
:1020F0000E94620C8AE00E94D80B0E947E0951C0A7
:10210000CE0101960E944905882309F44AC019812D
:10211000812F8F73823109F044C09A81492F441F67
:102120004427441F8B81582F550F252F242B87FBC5
:10213000332730F94091A1015091A20124173507AE
:1021400059F00E94110F4AE050E00E948B0C0E944F
:10215000830C89E693E01BC01295169516951370B3
:10216000892F880F880F182B96FB002700F9812FE5
:10217000902F0E946B04811110C00E94110F4AE041
:1021800050E00E948B0C0E94830C88E593E00E9433
:10219000620C8AE00E94D80B04C0812F902F0E940D
:1021A000D2070F900F900F900F90DF91CF911F915A
:1021B0000F9108951F93CF93DF9300D000D0CDB738
:1021C000DEB761E08DE00E94E70D609160027091E2
:1021D000610280916202909163026E317105810506
:1021E000910558F00E94110F4AE050E00E948B0CBC
:1021F0000E94830C86EF93E099C02AE030E040E033
:1022000050E00E943C17613071058105910539F558
:102210000E94110F4AE050E00E948B0C0E94830C38
:1022200088EE93E00E94620C6091E50270E080E02D
:1022300090E04AE00E94E30B8AE00E94D80B809174
:10224000E502E82FF0E0EE0FFF1FE15AFE4F41815B
:1022500050E0608170E080620E94B0046EC0CE01E8
:1022600001960E944905882309F467C08981982F47
:102270009F73983109F061C0982F92959695969525
:1022800093708A81482F440F440F242F292B86FBFB
:10229000332730F94091A1015091A201241735074D
:1022A00059F00E94110F4AE050E00E948B0C0E94EE
:1022B000830C8EEC93E01CC01091E502881F8827E8
:1022C000881F9B81492F440F242F282B97FB3327EE
:1022D00030F9812F90E02817390781F00E94110F03
:1022E0004AE050E00E948B0C0E94830C84EB93E048
:1022F0000E94620C8AE00E94D80B1FC01F5F1093DF
:10230000E50260E08DE00E94E70D103228F48BE4D6
:1023100092E00E941A0A11C00E94110F4AE050E098
:102320000E948B0C0E94830C83EA93E00E94620C53
:102330008AE00E94D80B0E947E090F900F900F90A8
:102340000F90DF91CF911F9108951F920F920FB6BA
:102350000F9211242F933F938F939F93AF93BF932B
:102360008091E7029091E802A091E902B091EA021F
:102370003091E60226E0230F2D3720F40296A11DAE
:10238000B11D05C029E8230F0396A11DB11D20939F
:10239000E6028093E7029093E802A093E902B093EB
:1023A000EA028091EB029091EC02A091ED02B091D3
:1023B000EE020196A11DB11D8093EB029093EC02F9
:1023C000A093ED02B093EE02BF91AF919F918F91D8
:1023D0003F912F910F900FBE0F901F9018951F9255
:1023E0000F920FB60F9211242F933F934F935F9349
:1023F0006F937F938F939F93AF93BF93EF93FF93CD
:10240000E0910201F09103010995FF91EF91BF91D5
:10241000AF919F918F917F916F915F914F913F917C
:102420002F910F900FBE0F901F9018951F920F9233
:102430000FB60F9211242F933F934F935F936F9397
:102440007F938F939F93AF93BF93EF93FF93E0910D
:102450000001F09101010995FF91EF91BF91AF91BA
:102460009F918F917F916F915F914F913F912F91AC
:102470000F900FBE0F901F9018958F929F92AF9262
:10248000CF92DF92EF92FF920F931F93EEEAF1E06B
:102490001382128288EE93E0A0E0B0E084839583FB
:1024A000A683B7838CE091E09183808385EC90E0F4
:1024B0009587848784EC90E09787868780EC90E00E
:1024C000918B808B81EC90E0938B828B82EC90E0FF
:1024D000958B848B86EC90E0978B868B118E128E79
:1024E000138E148EEFEDF2E01182108213821282AD
:1024F000158214821F921F92812C912CAA24A394DE
:102500006F0187ECE82E86E0F82E0FEF1FEF9801A1
:1025100044E150E060E070E08AEB92E00E949C0AA7
:102520001F921F92A12C97EAE92E98E0F92E0FEF47
:102530001FEF980148EE53E060E070E085E992E01B
:102540000E949C0A1F921F9225E9E22E29E0F22E9A
:1025500004E010E020E030E048EE53E060E070E09E
:1025600080E792E00E949C0A1F921F923DE1E32EB9
:102570003FE0F32E0FEF1FEF980144E650E060E0DC
:1025800070E08BE492E00E949C0A8DB79EB708969B
:102590000FB6F8949EBF0FBE8DBF1F910F91FF9095
:1025A000EF90DF90CF90AF909F908F900895CF9352
:1025B000DF931F92CDB7DEB7789484B5826084BD77
:1025C00084B5816084BD85B5826085BD85B5816037
:1025D00085BD80916E00816080936E0010928100B5
:1025E0008091810082608093810080918100816070
:1025F0008093810080918000816080938000809131
:10260000B10084608093B1008091B00081608093BC
:10261000B00080917A00846080937A0080917A0083
:10262000826080937A0080917A008E7F80937A0016
:1026300080917A00806880937A001092C100E091C6
:10264000BE01F091BF0182E08083E091BA01F09178
:10265000BB011082E091BC01F091BD0188E0808354
:102660001092C601E091C201F091C30186E080831F
:10267000E091C001F091C101808180618083E0918F
:10268000C001F091C101808188608083E091C00128
:10269000F091C101808180688083E091C001F09158
:1026A000C10180818F7D80830E94110F4AE050E03C
:1026B0000E948B0C0E94830C88EF92E00E94620CB7
:1026C0008AE00E94D80B62E089E00E94170E62E067
:1026D00088E00E94170E80917A008F7780937A00AD
:1026E00083E080936B0083B7817F846083BF89E040
:1026F000E6E3F1E0DF011D928A95E9F710923201DD
:1027000010923301109234011092350181E00E9441
:10271000110981E00E94D60560E082E00E94170E58
:1027200080E2EFE3F1E0DF011D928A95E9F7109274
:10273000AA011092AB0181E00E94870580E090E041
:102740000E94F4168093A10181E090E00E94F416AB
:102750008093A2010E94110F4AE050E00E948B0C6E
:102760000E94830C8BEE92E00E94620C6091A101AA
:102770007091A20180E090E04AE00E94E30B8AE0C1
:102780000E94D80B8091A1019091A2010E946B043C
:1027900081110FC00E94110F4AE050E00E948B0C83
:1027A0000E94830C83ED92E00E94620C8AE00E94FA
:1027B000D80B82E090E00E94F416182F80E890E099
:1027C0000E94F4161A3521F58B3211F50E94110F73
:1027D0004AE050E00E948B0C0E94830C84EC92E053
:1027E0000E94620C8AE00E94D80B0FE511E033E0F2
:1027F000E32EF12CC7010E94F416F80181938F019A
:10280000FFEFEF1AFF0A83E4E816F10499F738C0E6
:102810000E94110F4AE050E00E948B0C0E94830C32
:1028200089EA92E00E94620C8AE00E94D80B80E460
:10283000EFE5F1E0DF011D928A95E9F78F0123E0D2
:10284000E22EF12CF80161918F01C70169830E948A
:10285000F4166981681719F0C7010E94FC16FFEF92
:10286000EF1AFF0A83E4E816F10461F76AE582E0F3
:1028700090E00E94FC166BE280E890E00E94FC165B
:102880000E9480049093A00180939F010E941604EF
:102890006091A1017091A20180E090E06115710545
:1028A0008105910511F00E94EB1661E086E00E941F
:1028B000E70D61E085E00E94E70D66E970E080E0E9
:1028C00090E00E94D70E60E086E00E94E70D60E095
:1028D00085E00E94E70D64E670E080E090E00E94F1
:1028E000D70E61E086E00E94E70D61E085E00E947E
:1028F000E70D66E970E080E090E00E94D70E60E0AE
:1029000086E00E94E70D60E085E00E94E70D81E02F
:102910008093AD010E94110F4AE050E00E948B0CA1
:102920000E94830C82EF92E00E94620C8AE00E9477
:10293000D80B84ECC82E89E0D82EE12CF12C90E441
:10294000292E9FE1392E8091AD01882309F462C1BF
:1029500080E00E94110980E00E94D60580E00E947C
:1029600087050E94110F4AE050E00E948B0C0E94E4
:10297000830C89E293E00E94620C8AE00E94D80BEB
:102980008EEA91E00E949C0DF894D89A91E0909381
:10299000680083B7816083BF85B7806685BF8F7D00
:1029A00085BF7894889583B78E7F83BF789461E0E4
:1029B00070E080E090E00E94D70E89E00E94BE0D9A
:1029C00011E0892B09F010E088E00E94BE0D892BF0
:1029D00011F4126003C01123B9F211E081E00E94EA
:1029E000110981E00E94D60581E00E9487050E94BE
:1029F000110F4AE050E00E948B0C0E94830C8AE188
:102A000093E00E94620C612F70E080E090E04AE069
:102A10000E94E30B8AE00E94D80B1092AD01A1E066
:102A2000B3E0B093A801A093A701B093A601A0932F
:102A3000A50110FF74C00E941906F8948091AB01A3
:102A40008093AA01B5E0B093A90178941092AC01EB
:102A500080E792E00E941A0AC0927502D092760234
:102A6000E0927702F09278020E94110F609379024F
:102A700070937A0280937B0290937C028091810212
:102A800090918202A0918302B091840280937D0292
:102A900090937E02A0937F02B0938002EDE1FFE06D
:102AA000F0936502E093640284E690E0A0E0B0E079
:102AB00080934C0290934D02A0934E02B0934F022C
:102AC00080914C0290914D02A0914E02B0914F0224
:102AD0008093500290935102A0935202B0935302FC
:102AE0000E94110F60935402709355028093560216
:102AF000909357028BE492E00E941A0A80915C0244
:102B000090915D02A0915E02B0915F0280935802A5
:102B100090935902A0935A02B0935B027BC00E942B
:102B200019061092A4011092A3018091A101909125
:102B3000A2010E94FE0660919F017091A0016F5F4B
:102B40007F4FCB01A0E0B0E08093A2029093A3025C
:102B5000A093A402B093A5028093A6029093A7022B
:102B6000A093A802B093A9026830710538F0C101A2
:102B70000E946D17CB01A0E0B0E004C088EE93E0A6
:102B8000A0E0B0E08093960290939702A093980201
:102B9000B09399028091960290919702A091980229
:102BA000B091990280939A0290939B02A0939C0209
:102BB000B0939D020E94110F60939E0270939F023A
:102BC0008093A0029093A10285E992E00E941A0AE4
:102BD000C0929A02D0929B02E0929C02F0929D02D7
:102BE0000E94110F60939E0270939F028093A00237
:102BF0009093A1028091A6029091A702A091A802B1
:102C0000B091A9028093A2029093A302A093A40280
:102C1000B093A5028091DF029091E0029093E402CC
:102C20008093E3028091E3029091E402009709F41B
:102C30006CC0FC01208120FF61C0458556856785F9
:102C40007089452B462B472B19F40E94420956C028
:102C50000E94110FE091E302F091E40201811281E0
:102C60002381348141845284638474848580968076
:102C7000A780B084DC01CB0184199509A609B709A6
:102C800088159905AA05BB05C8F185859685A78590
:102C9000B089181619061A061B065CF485859685F8
:102CA000A785B0890197A109B10985879687A7876C
:102CB000B08B85899689A789B08D0196A11DB11D1C
:102CC000858B968BA78BB08F85819681A781B085E8
:102CD0004185528563857485840F951FA61FB71F94
:102CE00081879287A387B4870583168327833087DC
:102CF000018CF28DE02D309709F00995E091E30207
:102D0000F091E40281A192A189CF0E94470D1BCED0
:102D10008BE492E00E94650A80E792E00E94650AD7
:102D200085E992E00E94650A8AEB92E00C94650ABC
:102D30008F929F92AF92BF92CF92DF92EF92FF92CB
:102D4000CF93DF93EC01688179818A819B81611542
:102D500071058105910521F464E279ED8BE597E039
:102D60002DE133EF41E050E00E940A1749015A017A
:102D70009B01AC01A7EAB1E40E9429176B017C0119
:102D8000ACEEB4EFA50194010E943717DC01CB0132
:102D90008C0D9D1DAE1DBF1DB7FF03C00197A1097E
:102DA000B04888839983AA83BB83BC01CD019F77F8
:102DB000DF91CF91FF90EF90DF90CF90BF90AF90D9
:102DC0009F908F9008950E949816089584E091E056
:102DD0000E949816089560930401709305018093F2
:102DE0000601909307010895F999FECF92BD81BD28
:102DF000F89A992780B50895262FF999FECF1FBA22
:102E000092BD81BD20BD0FB6F894FA9AF99A0FBE13
:102E100001960895052E97FB1EF400940E94211739
:102E200057FD07D00E943C1707FC03D04EF40C94CA
:102E3000211750954095309521953F4F4F4F5F4F4B
:102E4000089590958095709561957F4F8F4F9F4F16
:102E500008950E945E17A59F900DB49F900DA49FAA
:102E6000800D911D11240895B7FF0C9429170E941D
:102E70002917821B930B0895A1E21A2EAA1BBB1BD4
:102E8000FD010DC0AA1FBB1FEE1FFF1FA217B30736
:102E9000E407F50720F0A21BB30BE40BF50B661F4C
:102EA000771F881F991F1A9469F760957095809510
:102EB00090959B01AC01BD01CF010895A29FB00187
:102EC000B39FC001A39F700D811D1124911DB29F5E
:102ED000700D811D1124911D0895AA1BBB1B51E18A
:102EE00007C0AA1FBB1FA617B70710F0A61BB70B7A
:102EF000881F991F5A95A9F780959095BC01CD011F
:102F00000895EE0FFF1F0590F491E02D099481E0E4
:102F100090E0F8940C948C1712E0C5E9D2E004C05C
:102F2000FE010E9481172196C639D107C9F7F8948E
:022F3000FFCFD1
:102F32007A0D7A0D0100000000000000910B560B83
:0E2F42000A0D9C0D3B0D190D2D0D207C20005D
:107800000C94343C0C94513C0C94513C0C94513CE1
:107810000C94513C0C94513C0C94513C0C94513CB4
:107820000C94513C0C94513C0C94513C0C94513CA4
:107830000C94513C0C94513C0C94513C0C94513C94
:107840000C94513C0C94513C0C94513C0C94513C84
:107850000C94513C0C94513C0C94513C0C94513C74
:107860000C94513C0C94513C11241FBECFEFD8E036
:10787000DEBFCDBF11E0A0E0B1E0EAE8FFE702C063
:1078800005900D92A230B107D9F712E0A2E0B1E065
:1078900001C01D92AD30B107E1F70E942D3D0C945F
:1078A000C33F0C94003C982F95959595959595958B
:1078B000905D8F708A307CF0282F295A8091C0000B
:1078C00085FFFCCF9093C6008091C00085FFFCCF60
:1078D0002093C6000895282F205DF0CF982F809127
:1078E000C00085FFFCCF9093C6000895EF92FF92F1
:1078F0000F931F93EE24FF2487018091C00087FD22
:1079000017C00894E11CF11C011D111D81E2E8164D
:1079100081EAF80687E0080780E0180770F3E09135
:107920000401F091050109958091C00087FFE9CF1E
:107930008091C6001F910F91FF90EF9008950E94D3
:10794000763C982F8091C00085FFFCCF9093C600B5
:1079500091362CF490330CF09053892F089597555D
:10796000892F08951F930E949F3C182F0E949F3CCF
:107970001295107F810F1F9108951F93182F882350
:1079800021F00E94763C1150E1F71F9108951F935A
:10799000182F0E94763C803249F0809103018F5F5E
:1079A000809303018530C1F01F9108958091C0003C
:1079B00085FFFCCF84E18093C6008091C00085FFE5
:1079C000FCCF1093C6008091C00085FFFCCF80E102
:1079D0008093C6001F910895E0910401F091050184
:1079E00009951F9108950E94763C803241F0809164
:1079F00003018F5F80930301853081F008958091AA
:107A0000C00085FFFCCF84E18093C6008091C00058
:107A100085FFFCCF80E18093C6000895E0910401CA
:107A2000F09105010995089548EC50E08823A1F0F4
:107A30002D9A28EE33E0FA013197F1F721503040CA
:107A4000D1F72D9828EE33E0FA013197F1F7215064
:107A50003040D1F7815061F708953F924F925F9285
:107A60006F927F928F929F92AF92BF92CF92DF924E
:107A7000EF92FF920F931F93CF93DF93000082E06A
:107A80008093C00080E18093C4001092C50088E11B
:107A90008093C10086E08093C2005098589A259A3E
:107AA00081E00E94143D24E1F22E9EE1E92E85E959
:107AB000D82E0FE0C02E10E1B12EAA24A394B1E479
:107AC0009B2EA6E58A2EF2E57F2EE0E26E2E79E46B
:107AD000572E63E5462E50E5352E0E94763C8033C6
:107AE000B1F18133B9F1803409F46FC0813409F404
:107AF00076C0823409F485C0853409F488C08035A5
:107B000031F1823521F1813511F1853509F485C0D6
:107B1000863509F48DC0843609F496C0843709F49B
:107B200003C1853709F472C1863709F466C08091B4
:107B300003018F5F80930301853079F6E0910401A2
:107B4000F091050109950E94763C803351F60E9420
:107B5000F33CC3CF0E94763C803249F78091C0004D
:107B600085FFFCCFF092C6008091C00085FFFCCF5E
:107B70009092C6008091C00085FFFCCF8092C60025
:107B80008091C00085FFFCCF7092C6008091C0003C
:107B900085FFFCCF6092C6008091C00085FFFCCFBE
:107BA0005092C6008091C00085FFFCCF4092C60075
:107BB0008091C00085FFFCCF3092C6008091C0004C
:107BC00085FFFCCFB092C60088CF0E94763C8638F5
:107BD00008F4BDCF0E94763C0E94F33C7ECF0E9409
:107BE000763C803809F49CC0813809F40BC1823896
:107BF00009F430C1883909F48FC080E00E94C73C85
:107C00006CCF84E10E94BD3C0E94F33C66CF85E0CE
:107C10000E94BD3C0E94F33C60CF0E94763C809362
:107C200006010E94763C809307010E94F33C55CFE9
:107C30000E94763C803309F411C183E00E94BD3C70
:107C400080E00E94C73C49CF0E94763C80930902A5
:107C50000E94763C8093080280910C028E7F809374
:107C60000C020E94763C853409F409C18091080217
:107C700090910902892B89F000E010E00E94763C87
:107C8000F801E85FFE4F80830F5F1F4F809108026D
:107C9000909109020817190788F30E94763C8032F8
:107CA00009F045CF80910C0280FFF5C0609106017C
:107CB00070910701660F771F7093070160930601AB
:107CC000A0910802B09109021097C9F0E8E0F1E034
:107CD0009B01AD014E0F5F1FF999FECF32BD21BD53
:107CE000819180BDFA9AF99A2F5F3F4FE417F5070B
:107CF00099F76A0F7B1F70930701609306018091CB
:107D0000C00085FFFCCFF092C6008091C00085FFC7
:107D1000FCCFB092C600E1CE83E00E94C73CDDCE2E
:107D200082E00E94C73CD9CE0E94763C8093090233
:107D30000E94763C80930802809106019091070191
:107D4000880F991F90930701809306010E94763C4B
:107D5000853409F49AC080910C028E7F80930C02C6
:107D60000E94763C803209F0B8CE8091C00085FF39
:107D7000FCCFF092C600A0910802B09109021097C2
:107D8000C1F180910C02082F0170182F1695117007
:107D9000E0910601F0910701AF014F5F5F4FBA011B
:107DA00020E030E00023B1F4112339F49491809164
:107DB000C00085FFFCCF9093C6002F5F3F4FCB01E3
:107DC0000196FA012A173B0780F4BC014F5F5F4F11
:107DD000002351F3F999FECFF2BDE1BDF89A90B5B9
:107DE0008091C00085FFFCCFE6CF709307016093C0
:107DF00006018091C00085FDE5CE8091C00085FF21
:107E0000F8CFE0CE81E00E94C73C67CE0E94763C6E
:107E1000803209F08CCE8091C00085FFFCCFF092BB
:107E2000C6008091C00085FFFCCFE092C600809123
:107E3000C00085FFFCCFD092C6008091C00085FFB6
:107E4000FCCFC092C6008091C00085FFFCCFB092ED
:107E5000C60043CE80E10E94C73C3FCE0E94763CE4
:107E60000E94763C182F0E94763C112309F483C0AF
:107E7000113009F484C08FE00E94C73C2ECE80915F
:107E80000C02816080930C02F1CE80910C02816023
:107E900080930C0265CF809107018823880F880B9F
:107EA0008A2180930B028091060190910701880F2F
:107EB000991F90930701809306018091080280FF2B
:107EC00009C08091080290910902019690930902DD
:107ED00080930802F894F999FECF1127E0910601EA
:107EE000F0910701C8E0D1E0809108029091090269
:107EF000103091F40091570001700130D9F303E084
:107F000000935700E8950091570001700130D9F3B4
:107F100001E100935700E8950990199000915700EE
:107F200001700130D9F301E000935700E8951395F3
:107F3000103498F011270091570001700130D9F3E7
:107F400005E000935700E89500915700017001305B
:107F5000D9F301E100935700E8953296029709F0B2
:107F6000C7CF103011F00296E5CF11248091C000E8
:107F700085FFC5CEC8CE8EE10E94C73CAECD85E957
:0A7F80000E94C73CAACDF894FFCF81
:027F8A00800075
:040000030000780081
:00000001FF
